{
  "_format": "hh-sol-artifact-1",
  "contractName": "Transactions",
  "sourceName": "contracts/Transactions.sol",
  "abi": [
    {
      "anonymous": false,
      "inputs": [
        {
          "indexed": false,
          "internalType": "address",
          "name": "from",
          "type": "address"
        },
        {
          "indexed": false,
          "internalType": "address",
          "name": "receiver",
          "type": "address"
        },
        {
          "indexed": false,
          "internalType": "uint256",
          "name": "amount",
          "type": "uint256"
        },
        {
          "indexed": false,
          "internalType": "string",
          "name": "message",
          "type": "string"
        },
        {
          "indexed": false,
          "internalType": "uint256",
          "name": "timestamp",
          "type": "uint256"
        },
        {
          "indexed": false,
          "internalType": "string",
          "name": "keyword",
          "type": "string"
        }
      ],
      "name": "Transfer",
      "type": "event"
    },
    {
      "inputs": [
        {
          "internalType": "address payable",
          "name": "receiver",
          "type": "address"
        },
        {
          "internalType": "uint256",
          "name": "amount",
          "type": "uint256"
        },
        {
          "internalType": "string",
          "name": "message",
          "type": "string"
        },
        {
          "internalType": "string",
          "name": "keyword",
          "type": "string"
        }
      ],
      "name": "addToBlockchain",
      "outputs": [],
      "stateMutability": "payable",
      "type": "function"
    },
    {
      "inputs": [],
      "name": "getAllTransactions",
      "outputs": [
        {
          "components": [
            {
              "internalType": "address",
              "name": "sender",
              "type": "address"
            },
            {
              "internalType": "address",
              "name": "receiver",
              "type": "address"
            },
            {
              "internalType": "uint256",
              "name": "amount",
              "type": "uint256"
            },
            {
              "internalType": "string",
              "name": "message",
              "type": "string"
            },
            {
              "internalType": "uint256",
              "name": "timestamp",
              "type": "uint256"
            },
            {
              "internalType": "string",
              "name": "keyword",
              "type": "string"
            }
          ],
          "internalType": "struct Transactions.TransferStruct[]",
          "name": "",
          "type": "tuple[]"
        }
      ],
      "stateMutability": "view",
      "type": "function"
    },
    {
      "inputs": [
        {
          "internalType": "address",
          "name": "addr",
          "type": "address"
        }
      ],
      "name": "getBalance",
      "outputs": [
        {
          "internalType": "uint256",
          "name": "",
          "type": "uint256"
        }
      ],
      "stateMutability": "view",
      "type": "function"
    },
    {
      "inputs": [],
      "name": "getTransactionCount",
      "outputs": [
        {
          "internalType": "uint256",
          "name": "",
          "type": "uint256"
        }
      ],
      "stateMutability": "view",
      "type": "function"
    },
    {
      "inputs": [
        {
          "internalType": "uint256",
          "name": "",
          "type": "uint256"
        }
      ],
      "name": "transactions",
      "outputs": [
        {
          "internalType": "address",
          "name": "sender",
          "type": "address"
        },
        {
          "internalType": "address",
          "name": "receiver",
          "type": "address"
        },
        {
          "internalType": "uint256",
          "name": "amount",
          "type": "uint256"
        },
        {
          "internalType": "string",
          "name": "message",
          "type": "string"
        },
        {
          "internalType": "uint256",
          "name": "timestamp",
          "type": "uint256"
        },
        {
          "internalType": "string",
          "name": "keyword",
          "type": "string"
        }
      ],
      "stateMutability": "view",
      "type": "function"
    }
  ],
  "bytecode": "0x608060405234801561001057600080fd5b5061144a806100206000396000f3fe60806040526004361061004a5760003560e01c806327506f531461004f5780632e7700f01461007a5780639ace38c2146100a5578063cc2d7ead146100e7578063f8b2cb4f14610103575b600080fd5b34801561005b57600080fd5b50610064610140565b6040516100719190610b05565b60405180910390f35b34801561008657600080fd5b5061008f610383565b60405161009c9190610b36565b60405180910390f35b3480156100b157600080fd5b506100cc60048036038101906100c79190610b91565b61038f565b6040516100de96959493929190610c17565b60405180910390f35b61010160048036038101906100fc9190610df9565b61052b565b005b34801561010f57600080fd5b5061012a60048036038101906101259190610ec4565b6107b6565b6040516101379190610b36565b60405180910390f35b60606000805480602002602001604051908101604052809291908181526020016000905b8282101561037a57838290600052602060002090600602016040518060c00160405290816000820160009054906101000a900473ffffffffffffffffffffffffffffffffffffffff1673ffffffffffffffffffffffffffffffffffffffff1673ffffffffffffffffffffffffffffffffffffffff1681526020016001820160009054906101000a900473ffffffffffffffffffffffffffffffffffffffff1673ffffffffffffffffffffffffffffffffffffffff1673ffffffffffffffffffffffffffffffffffffffff1681526020016002820154815260200160038201805461024d90610f20565b80601f016020809104026020016040519081016040528092919081815260200182805461027990610f20565b80156102c65780601f1061029b576101008083540402835291602001916102c6565b820191906000526020600020905b8154815290600101906020018083116102a957829003601f168201915b50505050508152602001600482015481526020016005820180546102e990610f20565b80601f016020809104026020016040519081016040528092919081815260200182805461031590610f20565b80156103625780601f1061033757610100808354040283529160200191610362565b820191906000526020600020905b81548152906001019060200180831161034557829003601f168201915b50505050508152505081526020019060010190610164565b50505050905090565b60008080549050905090565b6000818154811061039f57600080fd5b90600052602060002090600602016000915090508060000160009054906101000a900473ffffffffffffffffffffffffffffffffffffffff16908060010160009054906101000a900473ffffffffffffffffffffffffffffffffffffffff169080600201549080600301805461041490610f20565b80601f016020809104026020016040519081016040528092919081815260200182805461044090610f20565b801561048d5780601f106104625761010080835404028352916020019161048d565b820191906000526020600020905b81548152906001019060200180831161047057829003601f168201915b5050505050908060040154908060050180546104a890610f20565b80601f01602080910402602001604051908101604052809291908181526020018280546104d490610f20565b80156105215780601f106104f657610100808354040283529160200191610521565b820191906000526020600020905b81548152906001019060200180831161050457829003601f168201915b5050505050905086565b6000831161056e576040517f08c379a000000000000000000000000000000000000000000000000000000000815260040161056590610f9d565b60405180910390fd5b8234146105b0576040517f08c379a00000000000000000000000000000000000000000000000000000000081526004016105a790611009565b60405180910390fd5b8373ffffffffffffffffffffffffffffffffffffffff166108fc849081150290604051600060405180830381858888f193505050501580156105f6573d6000803e3d6000fd5b5060006040518060c001604052803373ffffffffffffffffffffffffffffffffffffffff1681526020018673ffffffffffffffffffffffffffffffffffffffff16815260200185815260200184815260200142815260200183815250908060018154018082558091505060019003906000526020600020906006020160009091909190915060008201518160000160006101000a81548173ffffffffffffffffffffffffffffffffffffffff021916908373ffffffffffffffffffffffffffffffffffffffff16021790555060208201518160010160006101000a81548173ffffffffffffffffffffffffffffffffffffffff021916908373ffffffffffffffffffffffffffffffffffffffff16021790555060408201518160020155606082015181600301908161072891906111d5565b506080820151816004015560a082015181600501908161074891906111d5565b50505061076f6040518060600160405280602781526020016113ee602791398385876107d7565b7f416cfa4330a4565f45c2fd2dd4826a83a37443aba2ce6f79477c7355afac35fa3385858542866040516107a8969594939291906112fc565b60405180910390a150505050565b60008173ffffffffffffffffffffffffffffffffffffffff16319050919050565b610873848484846040516024016107f1949392919061136b565b6040516020818303038152906040527f1023f7b2000000000000000000000000000000000000000000000000000000007bffffffffffffffffffffffffffffffffffffffffffffffffffffffff19166020820180517bffffffffffffffffffffffffffffffffffffffffffffffffffffffff8381831617835250505050610879565b50505050565b610890816108886108936108b4565b63ffffffff16565b50565b60006a636f6e736f6c652e6c6f679050600080835160208501845afa505050565b6108bf819050919050565b6108c76113be565b565b600081519050919050565b600082825260208201905092915050565b6000819050602082019050919050565b600073ffffffffffffffffffffffffffffffffffffffff82169050919050565b6000610920826108f5565b9050919050565b61093081610915565b82525050565b6000819050919050565b61094981610936565b82525050565b600081519050919050565b600082825260208201905092915050565b60005b8381101561098957808201518184015260208101905061096e565b60008484015250505050565b6000601f19601f8301169050919050565b60006109b18261094f565b6109bb818561095a565b93506109cb81856020860161096b565b6109d481610995565b840191505092915050565b600060c0830160008301516109f76000860182610927565b506020830151610a0a6020860182610927565b506040830151610a1d6040860182610940565b5060608301518482036060860152610a3582826109a6565b9150506080830151610a4a6080860182610940565b5060a083015184820360a0860152610a6282826109a6565b9150508091505092915050565b6000610a7b83836109df565b905092915050565b6000602082019050919050565b6000610a9b826108c9565b610aa581856108d4565b935083602082028501610ab7856108e5565b8060005b85811015610af35784840389528151610ad48582610a6f565b9450610adf83610a83565b925060208a01995050600181019050610abb565b50829750879550505050505092915050565b60006020820190508181036000830152610b1f8184610a90565b905092915050565b610b3081610936565b82525050565b6000602082019050610b4b6000830184610b27565b92915050565b6000604051905090565b600080fd5b600080fd5b610b6e81610936565b8114610b7957600080fd5b50565b600081359050610b8b81610b65565b92915050565b600060208284031215610ba757610ba6610b5b565b5b6000610bb584828501610b7c565b91505092915050565b610bc781610915565b82525050565b600082825260208201905092915050565b6000610be98261094f565b610bf38185610bcd565b9350610c0381856020860161096b565b610c0c81610995565b840191505092915050565b600060c082019050610c2c6000830189610bbe565b610c396020830188610bbe565b610c466040830187610b27565b8181036060830152610c588186610bde565b9050610c676080830185610b27565b81810360a0830152610c798184610bde565b9050979650505050505050565b6000610c91826108f5565b9050919050565b610ca181610c86565b8114610cac57600080fd5b50565b600081359050610cbe81610c98565b92915050565b600080fd5b600080fd5b7f4e487b7100000000000000000000000000000000000000000000000000000000600052604160045260246000fd5b610d0682610995565b810181811067ffffffffffffffff82111715610d2557610d24610cce565b5b80604052505050565b6000610d38610b51565b9050610d448282610cfd565b919050565b600067ffffffffffffffff821115610d6457610d63610cce565b5b610d6d82610995565b9050602081019050919050565b82818337600083830152505050565b6000610d9c610d9784610d49565b610d2e565b905082815260208101848484011115610db857610db7610cc9565b5b610dc3848285610d7a565b509392505050565b600082601f830112610de057610ddf610cc4565b5b8135610df0848260208601610d89565b91505092915050565b60008060008060808587031215610e1357610e12610b5b565b5b6000610e2187828801610caf565b9450506020610e3287828801610b7c565b935050604085013567ffffffffffffffff811115610e5357610e52610b60565b5b610e5f87828801610dcb565b925050606085013567ffffffffffffffff811115610e8057610e7f610b60565b5b610e8c87828801610dcb565b91505092959194509250565b610ea181610915565b8114610eac57600080fd5b50565b600081359050610ebe81610e98565b92915050565b600060208284031215610eda57610ed9610b5b565b5b6000610ee884828501610eaf565b91505092915050565b7f4e487b7100000000000000000000000000000000000000000000000000000000600052602260045260246000fd5b60006002820490506001821680610f3857607f821691505b602082108103610f4b57610f4a610ef1565b5b50919050565b7f416d6f756e74206d7573742062652067726561746572207468616e2030000000600082015250565b6000610f87601d83610bcd565b9150610f9282610f51565b602082019050919050565b60006020820190508181036000830152610fb681610f7a565b9050919050565b7f53656e7420455448206d757374206d6174636820616d6f756e74000000000000600082015250565b6000610ff3601a83610bcd565b9150610ffe82610fbd565b602082019050919050565b6000602082019050818103600083015261102281610fe6565b9050919050565b60008190508160005260206000209050919050565b60006020601f8301049050919050565b600082821b905092915050565b60006008830261108b7fffffffffffffffffffffffffffffffffffffffffffffffffffffffffffffffff8261104e565b611095868361104e565b95508019841693508086168417925050509392505050565b6000819050919050565b60006110d26110cd6110c884610936565b6110ad565b610936565b9050919050565b6000819050919050565b6110ec836110b7565b6111006110f8826110d9565b84845461105b565b825550505050565b600090565b611115611108565b6111208184846110e3565b505050565b5b818110156111445761113960008261110d565b600181019050611126565b5050565b601f8211156111895761115a81611029565b6111638461103e565b81016020851015611172578190505b61118661117e8561103e565b830182611125565b50505b505050565b600082821c905092915050565b60006111ac6000198460080261118e565b1980831691505092915050565b60006111c5838361119b565b9150826002028217905092915050565b6111de8261094f565b67ffffffffffffffff8111156111f7576111f6610cce565b5b6112018254610f20565b61120c828285611148565b600060209050601f83116001811461123f576000841561122d578287015190505b61123785826111b9565b86555061129f565b601f19841661124d86611029565b60005b8281101561127557848901518255600182019150602085019450602081019050611250565b86831015611292578489015161128e601f89168261119b565b8355505b6001600288020188555050505b505050505050565b60006112c26112bd6112b8846108f5565b6110ad565b6108f5565b9050919050565b60006112d4826112a7565b9050919050565b60006112e6826112c9565b9050919050565b6112f6816112db565b82525050565b600060c0820190506113116000830189610bbe565b61131e60208301886112ed565b61132b6040830187610b27565b818103606083015261133d8186610bde565b905061134c6080830185610b27565b81810360a083015261135e8184610bde565b9050979650505050505050565b600060808201905081810360008301526113858187610bde565b905081810360208301526113998186610bde565b90506113a86040830185610b27565b6113b56060830184610bbe565b95945050505050565b7f4e487b7100000000000000000000000000000000000000000000000000000000600052605160045260246000fdfe5472616e73616374696f6e2061646465643a2025732073656e742025732077656920746f202573a2646970667358221220a6445959665be9c88777cb1d90922d6a63dbec515bd3b9d5eacc85e6f3568b8f64736f6c63430008180033",
  "linkReferences": {},
  "deployedLinkReferences": {}
}